{
  "contractName": "XSLDID",
  "abi": [
    {
      "inputs": [
        {
          "internalType": "bytes",
          "name": "_authenticationKey",
          "type": "bytes"
        },
        {
          "internalType": "bytes32",
          "name": "_service",
          "type": "bytes32"
        }
      ],
      "stateMutability": "nonpayable",
      "type": "constructor"
    },
    {
      "anonymous": false,
      "inputs": [
        {
          "indexed": true,
          "internalType": "address",
          "name": "identity",
          "type": "address"
        },
        {
          "indexed": false,
          "internalType": "bytes32",
          "name": "name",
          "type": "bytes32"
        },
        {
          "indexed": false,
          "internalType": "uint256",
          "name": "validTo",
          "type": "uint256"
        },
        {
          "indexed": false,
          "internalType": "uint256",
          "name": "previousChange",
          "type": "uint256"
        },
        {
          "indexed": false,
          "internalType": "string",
          "name": "value",
          "type": "string"
        }
      ],
      "name": "DIDAttributeChanged",
      "type": "event"
    },
    {
      "anonymous": false,
      "inputs": [
        {
          "indexed": true,
          "internalType": "address",
          "name": "previousOwner",
          "type": "address"
        },
        {
          "indexed": true,
          "internalType": "address",
          "name": "newOwner",
          "type": "address"
        }
      ],
      "name": "OwnershipTransferred",
      "type": "event"
    },
    {
      "inputs": [],
      "name": "admin",
      "outputs": [
        {
          "internalType": "address",
          "name": "",
          "type": "address"
        }
      ],
      "stateMutability": "view",
      "type": "function",
      "constant": true
    },
    {
      "inputs": [
        {
          "internalType": "address",
          "name": "",
          "type": "address"
        }
      ],
      "name": "changed",
      "outputs": [
        {
          "internalType": "uint256",
          "name": "",
          "type": "uint256"
        }
      ],
      "stateMutability": "view",
      "type": "function",
      "constant": true
    },
    {
      "inputs": [
        {
          "internalType": "address",
          "name": "",
          "type": "address"
        }
      ],
      "name": "isIssuer",
      "outputs": [
        {
          "internalType": "bool",
          "name": "",
          "type": "bool"
        }
      ],
      "stateMutability": "view",
      "type": "function",
      "constant": true
    },
    {
      "inputs": [
        {
          "internalType": "address",
          "name": "",
          "type": "address"
        }
      ],
      "name": "nonce",
      "outputs": [
        {
          "internalType": "uint256",
          "name": "",
          "type": "uint256"
        }
      ],
      "stateMutability": "view",
      "type": "function",
      "constant": true
    },
    {
      "inputs": [
        {
          "internalType": "address",
          "name": "_identity",
          "type": "address"
        },
        {
          "internalType": "bytes32",
          "name": "_service",
          "type": "bytes32"
        },
        {
          "internalType": "bytes",
          "name": "_authenticationKey",
          "type": "bytes"
        }
      ],
      "name": "creatDID",
      "outputs": [],
      "stateMutability": "nonpayable",
      "type": "function"
    },
    {
      "inputs": [
        {
          "internalType": "address",
          "name": "_identity",
          "type": "address"
        },
        {
          "internalType": "bytes32",
          "name": "_service",
          "type": "bytes32"
        },
        {
          "internalType": "bytes",
          "name": "_authenticationKey",
          "type": "bytes"
        }
      ],
      "name": "creatDIDForIssuer",
      "outputs": [],
      "stateMutability": "nonpayable",
      "type": "function"
    },
    {
      "inputs": [
        {
          "internalType": "bytes32",
          "name": "_hashVC",
          "type": "bytes32"
        },
        {
          "internalType": "address",
          "name": "_issuerIdentity",
          "type": "address"
        }
      ],
      "name": "addVC",
      "outputs": [],
      "stateMutability": "nonpayable",
      "type": "function"
    },
    {
      "inputs": [
        {
          "internalType": "bytes32[]",
          "name": "_hashVCs",
          "type": "bytes32[]"
        },
        {
          "internalType": "address",
          "name": "_issuerIdentity",
          "type": "address"
        }
      ],
      "name": "addVCs",
      "outputs": [],
      "stateMutability": "nonpayable",
      "type": "function"
    },
    {
      "inputs": [
        {
          "internalType": "address",
          "name": "_issuerIdentity",
          "type": "address"
        },
        {
          "internalType": "bytes32",
          "name": "_vcIpfsHash",
          "type": "bytes32"
        }
      ],
      "name": "addPublicVC",
      "outputs": [],
      "stateMutability": "nonpayable",
      "type": "function"
    },
    {
      "inputs": [
        {
          "internalType": "address",
          "name": "_identity",
          "type": "address"
        },
        {
          "internalType": "address",
          "name": "_controller",
          "type": "address"
        }
      ],
      "name": "changeController",
      "outputs": [],
      "stateMutability": "nonpayable",
      "type": "function"
    },
    {
      "inputs": [
        {
          "internalType": "address",
          "name": "_identity",
          "type": "address"
        },
        {
          "internalType": "uint8",
          "name": "sigV",
          "type": "uint8"
        },
        {
          "internalType": "bytes32",
          "name": "sigR",
          "type": "bytes32"
        },
        {
          "internalType": "bytes32",
          "name": "sigS",
          "type": "bytes32"
        },
        {
          "internalType": "address",
          "name": "_controller",
          "type": "address"
        }
      ],
      "name": "changeControllerSigned",
      "outputs": [],
      "stateMutability": "nonpayable",
      "type": "function"
    },
    {
      "inputs": [
        {
          "internalType": "address",
          "name": "_identity",
          "type": "address"
        },
        {
          "internalType": "bytes32",
          "name": "name",
          "type": "bytes32"
        },
        {
          "internalType": "uint256",
          "name": "validity",
          "type": "uint256"
        },
        {
          "internalType": "string",
          "name": "value",
          "type": "string"
        }
      ],
      "name": "setAttribute",
      "outputs": [],
      "stateMutability": "nonpayable",
      "type": "function"
    },
    {
      "inputs": [
        {
          "internalType": "address",
          "name": "_identity",
          "type": "address"
        },
        {
          "internalType": "uint8",
          "name": "sigV",
          "type": "uint8"
        },
        {
          "internalType": "bytes32",
          "name": "sigR",
          "type": "bytes32"
        },
        {
          "internalType": "bytes32",
          "name": "sigS",
          "type": "bytes32"
        },
        {
          "internalType": "bytes32",
          "name": "name",
          "type": "bytes32"
        },
        {
          "internalType": "uint256",
          "name": "validity",
          "type": "uint256"
        },
        {
          "internalType": "string",
          "name": "value",
          "type": "string"
        }
      ],
      "name": "setAttributeSigned",
      "outputs": [],
      "stateMutability": "nonpayable",
      "type": "function"
    },
    {
      "inputs": [
        {
          "internalType": "address",
          "name": "_identity",
          "type": "address"
        },
        {
          "internalType": "bytes32",
          "name": "name",
          "type": "bytes32"
        },
        {
          "internalType": "string",
          "name": "value",
          "type": "string"
        }
      ],
      "name": "revokeAttribute",
      "outputs": [],
      "stateMutability": "nonpayable",
      "type": "function"
    },
    {
      "inputs": [
        {
          "internalType": "address",
          "name": "_identity",
          "type": "address"
        },
        {
          "internalType": "uint8",
          "name": "sigV",
          "type": "uint8"
        },
        {
          "internalType": "bytes32",
          "name": "sigR",
          "type": "bytes32"
        },
        {
          "internalType": "bytes32",
          "name": "sigS",
          "type": "bytes32"
        },
        {
          "internalType": "bytes32",
          "name": "name",
          "type": "bytes32"
        },
        {
          "internalType": "string",
          "name": "value",
          "type": "string"
        }
      ],
      "name": "revokeAttributeSigned",
      "outputs": [],
      "stateMutability": "nonpayable",
      "type": "function"
    },
    {
      "inputs": [
        {
          "internalType": "address",
          "name": "_identity",
          "type": "address"
        }
      ],
      "name": "getDID",
      "outputs": [
        {
          "internalType": "address",
          "name": "",
          "type": "address"
        },
        {
          "internalType": "bytes32",
          "name": "",
          "type": "bytes32"
        },
        {
          "internalType": "bytes",
          "name": "",
          "type": "bytes"
        }
      ],
      "stateMutability": "view",
      "type": "function",
      "constant": true
    },
    {
      "inputs": [
        {
          "internalType": "bytes32",
          "name": "_hashVC",
          "type": "bytes32"
        },
        {
          "internalType": "address",
          "name": "_issuerAddress",
          "type": "address"
        }
      ],
      "name": "getVCtimestamp",
      "outputs": [
        {
          "internalType": "uint256",
          "name": "",
          "type": "uint256"
        }
      ],
      "stateMutability": "view",
      "type": "function",
      "constant": true
    },
    {
      "inputs": [],
      "name": "owner",
      "outputs": [
        {
          "internalType": "address",
          "name": "",
          "type": "address"
        }
      ],
      "stateMutability": "view",
      "type": "function",
      "constant": true
    },
    {
      "inputs": [
        {
          "internalType": "address",
          "name": "account",
          "type": "address"
        }
      ],
      "name": "transferOwnership",
      "outputs": [],
      "stateMutability": "nonpayable",
      "type": "function"
    }
  ],
  "bytecode": "0x60806040523480156200001157600080fd5b506040516200349f3803806200349f833981810160405260408110156200003757600080fd5b81019080805160405193929190846401000000008211156200005857600080fd5b838201915060208201858111156200006f57600080fd5b82518660018202830111640100000000821117156200008d57600080fd5b8083526020830192505050908051906020019080838360005b83811015620000c3578082015181840152602081019050620000a6565b50505050905090810190601f168015620000f15780820380516001836020036101000a031916815260200191505b5060405260200180519060200190929190505050336000806101000a81548173ffffffffffffffffffffffffffffffffffffffff021916908373ffffffffffffffffffffffffffffffffffffffff16021790555060405180606001604052803373ffffffffffffffffffffffffffffffffffffffff16815260200182815260200183815250600160003373ffffffffffffffffffffffffffffffffffffffff1673ffffffffffffffffffffffffffffffffffffffff16815260200190815260200160002060008201518160000160006101000a81548173ffffffffffffffffffffffffffffffffffffffff021916908373ffffffffffffffffffffffffffffffffffffffff1602179055506020820151816001015560408201518160020190805190602001906200022492919062000288565b509050506001600260003373ffffffffffffffffffffffffffffffffffffffff1673ffffffffffffffffffffffffffffffffffffffff16815260200190815260200160002060006101000a81548160ff02191690831515021790555050506200033e565b828054600181600116156101000203166002900490600052602060002090601f016020900481019282620002c057600085556200030c565b82601f10620002db57805160ff19168380011785556200030c565b828001600101855582156200030c579182015b828111156200030b578251825591602001919060010190620002ee565b5b5090506200031b91906200031f565b5090565b5b808211156200033a57600081600090555060010162000320565b5090565b613151806200034e6000396000f3fe608060405234801561001057600080fd5b50600436106101215760003560e01c8063bd4572d9116100ad578063f14dfc2511610071578063f14dfc2514610a1d578063f2fde38b14610a7f578063f64e30b014610ac3578063f851a44014610ba4578063f96d0f9f14610bd857610121565b8063bd4572d9146105a7578063c15841071461068c578063d997d6951461077b578063dd8a3f7f14610860578063e4ab3d791461093857610121565b8063667b9510116100f4578063667b95101461036357806370ae92d214610473578063877b9a67146104cb5780638da5cb5b14610525578063a94623f31461055957610121565b806335fd0b73146101265780633e11e378146101745780634303951b146101d85780634afc321d1461025d575b600080fd5b6101726004803603604081101561013c57600080fd5b8101908080359060200190929190803573ffffffffffffffffffffffffffffffffffffffff169060200190929190505050610c30565b005b6101d66004803603604081101561018a57600080fd5b81019080803573ffffffffffffffffffffffffffffffffffffffff169060200190929190803573ffffffffffffffffffffffffffffffffffffffff169060200190929190505050610e0b565b005b61025b600480360360a08110156101ee57600080fd5b81019080803573ffffffffffffffffffffffffffffffffffffffff169060200190929190803560ff1690602001909291908035906020019092919080359060200190929190803573ffffffffffffffffffffffffffffffffffffffff169060200190929190505050610f8d565b005b610361600480360360c081101561027357600080fd5b81019080803573ffffffffffffffffffffffffffffffffffffffff169060200190929190803560ff169060200190929190803590602001909291908035906020019092919080359060200190929190803590602001906401000000008111156102db57600080fd5b8201836020820111156102ed57600080fd5b8035906020019184600183028401116401000000008311171561030f57600080fd5b91908080601f016020809104026020016040519081016040528093929190818152602001838380828437600081840152601f19601f8201169050808301925050505050505091929192905050506112d2565b005b610471600480360360e081101561037957600080fd5b81019080803573ffffffffffffffffffffffffffffffffffffffff169060200190929190803560ff16906020019092919080359060200190929190803590602001909291908035906020019092919080359060200190929190803590602001906401000000008111156103eb57600080fd5b8201836020820111156103fd57600080fd5b8035906020019184600183028401116401000000008311171561041f57600080fd5b91908080601f016020809104026020016040519081016040528093929190818152602001838380828437600081840152601f19601f82011690508083019250505050505050919291929050505061154c565b005b6104b56004803603602081101561048957600080fd5b81019080803573ffffffffffffffffffffffffffffffffffffffff1690602001909291905050506117d0565b6040518082815260200191505060405180910390f35b61050d600480360360208110156104e157600080fd5b81019080803573ffffffffffffffffffffffffffffffffffffffff1690602001909291905050506117e8565b60405180821515815260200191505060405180910390f35b61052d611808565b604051808273ffffffffffffffffffffffffffffffffffffffff16815260200191505060405180910390f35b6105a56004803603604081101561056f57600080fd5b81019080803573ffffffffffffffffffffffffffffffffffffffff16906020019092919080359060200190929190505050611831565b005b61068a600480360360608110156105bd57600080fd5b81019080803573ffffffffffffffffffffffffffffffffffffffff169060200190929190803590602001909291908035906020019064010000000081111561060457600080fd5b82018360208201111561061657600080fd5b8035906020019184600183028401116401000000008311171561063857600080fd5b91908080601f016020809104026020016040519081016040528093929190818152602001838380828437600081840152601f19601f820116905080830192505050505050509192919290505050611a4a565b005b610779600480360360808110156106a257600080fd5b81019080803573ffffffffffffffffffffffffffffffffffffffff1690602001909291908035906020019092919080359060200190929190803590602001906401000000008111156106f357600080fd5b82018360208201111561070557600080fd5b8035906020019184600183028401116401000000008311171561072757600080fd5b91908080601f016020809104026020016040519081016040528093929190818152602001838380828437600081840152601f19601f820116905080830192505050505050509192919290505050611b29565b005b61085e6004803603606081101561079157600080fd5b81019080803573ffffffffffffffffffffffffffffffffffffffff16906020019092919080359060200190929190803590602001906401000000008111156107d857600080fd5b8201836020820111156107ea57600080fd5b8035906020019184600183028401116401000000008311171561080c57600080fd5b91908080601f016020809104026020016040519081016040528093929190818152602001838380828437600081840152601f19601f820116905080830192505050505050509192919290505050611c0a565b005b6109366004803603604081101561087657600080fd5b810190808035906020019064010000000081111561089357600080fd5b8201836020820111156108a557600080fd5b803590602001918460208302840111640100000000831117156108c757600080fd5b919080806020026020016040519081016040528093929190818152602001838360200280828437600081840152601f19601f820116905080830192505050505050509192919290803573ffffffffffffffffffffffffffffffffffffffff169060200190929190505050611f05565b005b610a1b6004803603606081101561094e57600080fd5b81019080803573ffffffffffffffffffffffffffffffffffffffff169060200190929190803590602001909291908035906020019064010000000081111561099557600080fd5b8201836020820111156109a757600080fd5b803590602001918460018302840111640100000000831117156109c957600080fd5b91908080601f016020809104026020016040519081016040528093929190818152602001838380828437600081840152601f19601f82011690508083019250505050505050919291929050505061210d565b005b610a6960048036036040811015610a3357600080fd5b8101908080359060200190929190803573ffffffffffffffffffffffffffffffffffffffff16906020019092919050505061247f565b6040518082815260200191505060405180910390f35b610ac160048036036020811015610a9557600080fd5b81019080803573ffffffffffffffffffffffffffffffffffffffff1690602001909291905050506124da565b005b610b0560048036036020811015610ad957600080fd5b81019080803573ffffffffffffffffffffffffffffffffffffffff1690602001909291905050506126fb565b604051808473ffffffffffffffffffffffffffffffffffffffff16815260200183815260200180602001828103825283818151815260200191508051906020019080838360005b83811015610b67578082015181840152602081019050610b4c565b50505050905090810190601f168015610b945780820380516001836020036101000a031916815260200191505b5094505050505060405180910390f35b610bac612891565b604051808273ffffffffffffffffffffffffffffffffffffffff16815260200191505060405180910390f35b610c1a60048036036020811015610bee57600080fd5b81019080803573ffffffffffffffffffffffffffffffffffffffff1690602001909291905050506128b5565b6040518082815260200191505060405180910390f35b60008054906101000a900473ffffffffffffffffffffffffffffffffffffffff1673ffffffffffffffffffffffffffffffffffffffff163373ffffffffffffffffffffffffffffffffffffffff1614610cf1576040517f08c379a00000000000000000000000000000000000000000000000000000000081526004018080602001828103825260168152602001807f4f6e6c792061646d696e2063616e20646f20746861740000000000000000000081525060200191505060405180910390fd5b80600260008273ffffffffffffffffffffffffffffffffffffffff1673ffffffffffffffffffffffffffffffffffffffff16815260200190815260200160002060009054906101000a900460ff16610db1576040517f08c379a000000000000000000000000000000000000000000000000000000000815260040180806020018281038252601a8152602001807f546869732069737375657220646f6573206e6f7420657869737400000000000081525060200191505060405180910390fd5b426005600085815260200190815260200160002060008473ffffffffffffffffffffffffffffffffffffffff1673ffffffffffffffffffffffffffffffffffffffff16815260200190815260200160002081905550505050565b816000600160008373ffffffffffffffffffffffffffffffffffffffff1673ffffffffffffffffffffffffffffffffffffffff16815260200190815260200160002060020180546001816001161561010002031660029004905011610ed8576040517f08c379a000000000000000000000000000000000000000000000000000000000815260040180806020018281038252601c8152602001807f54686973206964656e7469747920646f6573206e6f742065786973740000000081525060200191505060405180910390fd5b81600073ffffffffffffffffffffffffffffffffffffffff168173ffffffffffffffffffffffffffffffffffffffff161415610f7c576040517f08c379a000000000000000000000000000000000000000000000000000000000815260040180806020018281038252601c8152602001807f546869732076616c7565206d757374206e6f7420626520656d7074790000000081525060200191505060405180910390fd5b610f878433856128cd565b50505050565b846000600160008373ffffffffffffffffffffffffffffffffffffffff1673ffffffffffffffffffffffffffffffffffffffff1681526020019081526020016000206002018054600181600116156101000203166002900490501161105a576040517f08c379a000000000000000000000000000000000000000000000000000000000815260040180806020018281038252601c8152602001807f54686973206964656e7469747920646f6573206e6f742065786973740000000081525060200191505060405180910390fd5b81600073ffffffffffffffffffffffffffffffffffffffff168173ffffffffffffffffffffffffffffffffffffffff1614156110fe576040517f08c379a000000000000000000000000000000000000000000000000000000000815260040180806020018281038252601c8152602001807f546869732076616c7565206d757374206e6f7420626520656d7074790000000081525060200191505060405180910390fd5b6000601960f81b600060f81b3060046000600160008e73ffffffffffffffffffffffffffffffffffffffff1673ffffffffffffffffffffffffffffffffffffffff16815260200190815260200160002060000160009054906101000a900473ffffffffffffffffffffffffffffffffffffffff1673ffffffffffffffffffffffffffffffffffffffff1673ffffffffffffffffffffffffffffffffffffffff168152602001908152602001600020548b8860405160200180877effffffffffffffffffffffffffffffffffffffffffffffffffffffffffffff19168152600101867effffffffffffffffffffffffffffffffffffffffffffffffffffffffffffff191681526001018573ffffffffffffffffffffffffffffffffffffffff1660601b81526014018481526020018373ffffffffffffffffffffffffffffffffffffffff1660601b8152601401807f6368616e6765436f6e74726f6c6c6572000000000000000000000000000000008152506010018273ffffffffffffffffffffffffffffffffffffffff1660601b815260140196505050505050506040516020818303038152906040528051906020012090506112c8886112c28a8a8a8a87612a3d565b866128cd565b5050505050505050565b856000600160008373ffffffffffffffffffffffffffffffffffffffff1673ffffffffffffffffffffffffffffffffffffffff1681526020019081526020016000206002018054600181600116156101000203166002900490501161139f576040517f08c379a000000000000000000000000000000000000000000000000000000000815260040180806020018281038252601c8152602001807f54686973206964656e7469747920646f6573206e6f742065786973740000000081525060200191505060405180910390fd5b6000601960f81b600060f81b30600460008c73ffffffffffffffffffffffffffffffffffffffff1673ffffffffffffffffffffffffffffffffffffffff168152602001908152602001600020548b888860405160200180887effffffffffffffffffffffffffffffffffffffffffffffffffffffffffffff19168152600101877effffffffffffffffffffffffffffffffffffffffffffffffffffffffffffff191681526001018673ffffffffffffffffffffffffffffffffffffffff1660601b81526014018581526020018473ffffffffffffffffffffffffffffffffffffffff1660601b8152601401807f7265766f6b654174747269627574650000000000000000000000000000000000815250600f0183815260200182805190602001908083835b602083106114e757805182526020820191506020810190506020830392506114c4565b6001836020036101000a0380198251168184511680821785525050505050509050019750505050505050506040516020818303038152906040528051906020012090506115428861153b8a8a8a8a87612a3d565b8686612b9c565b5050505050505050565b866000600160008373ffffffffffffffffffffffffffffffffffffffff1673ffffffffffffffffffffffffffffffffffffffff16815260200190815260200160002060020180546001816001161561010002031660029004905011611619576040517f08c379a000000000000000000000000000000000000000000000000000000000815260040180806020018281038252601c8152602001807f54686973206964656e7469747920646f6573206e6f742065786973740000000081525060200191505060405180910390fd5b6000601960f81b600060f81b30600460008d73ffffffffffffffffffffffffffffffffffffffff1673ffffffffffffffffffffffffffffffffffffffff168152602001908152602001600020548c89898960405160200180897effffffffffffffffffffffffffffffffffffffffffffffffffffffffffffff19168152600101887effffffffffffffffffffffffffffffffffffffffffffffffffffffffffffff191681526001018773ffffffffffffffffffffffffffffffffffffffff1660601b81526014018681526020018573ffffffffffffffffffffffffffffffffffffffff1660601b8152601401807f7365744174747269627574650000000000000000000000000000000000000000815250600c0184815260200183815260200182805190602001908083835b602083106117685780518252602082019150602081019050602083039250611745565b6001836020036101000a038019825116818451168082178552505050505050905001985050505050505050506040516020818303038152906040528051906020012090506117c5896117bd8b8b8b8b87612a3d565b878787612ddb565b505050505050505050565b60046020528060005260406000206000915090505481565b60026020528060005260406000206000915054906101000a900460ff1681565b60008060009054906101000a900473ffffffffffffffffffffffffffffffffffffffff16905090565b60008054906101000a900473ffffffffffffffffffffffffffffffffffffffff1673ffffffffffffffffffffffffffffffffffffffff163373ffffffffffffffffffffffffffffffffffffffff16146118f2576040517f08c379a00000000000000000000000000000000000000000000000000000000081526004018080602001828103825260168152602001807f4f6e6c792061646d696e2063616e20646f20746861740000000000000000000081525060200191505060405180910390fd5b81600260008273ffffffffffffffffffffffffffffffffffffffff1673ffffffffffffffffffffffffffffffffffffffff16815260200190815260200160002060009054906101000a900460ff166119b2576040517f08c379a000000000000000000000000000000000000000000000000000000000815260040180806020018281038252601a8152602001807f546869732069737375657220646f6573206e6f7420657869737400000000000081525060200191505060405180910390fd5b600660008473ffffffffffffffffffffffffffffffffffffffff1673ffffffffffffffffffffffffffffffffffffffff168152602001908152602001600020604051806040016040528084815260200142815250908060018154018082558091505060019003906000526020600020906002020160009091909190915060008201518160000155602082015181600101555050505050565b826000600160008373ffffffffffffffffffffffffffffffffffffffff1673ffffffffffffffffffffffffffffffffffffffff16815260200190815260200160002060020180546001816001161561010002031660029004905011611b17576040517f08c379a000000000000000000000000000000000000000000000000000000000815260040180806020018281038252601c8152602001807f54686973206964656e7469747920646f6573206e6f742065786973740000000081525060200191505060405180910390fd5b611b2384338585612b9c565b50505050565b836000600160008373ffffffffffffffffffffffffffffffffffffffff1673ffffffffffffffffffffffffffffffffffffffff16815260200190815260200160002060020180546001816001161561010002031660029004905011611bf6576040517f08c379a000000000000000000000000000000000000000000000000000000000815260040180806020018281038252601c8152602001807f54686973206964656e7469747920646f6573206e6f742065786973740000000081525060200191505060405180910390fd5b611c038533868686612ddb565b5050505050565b600260003373ffffffffffffffffffffffffffffffffffffffff1673ffffffffffffffffffffffffffffffffffffffff16815260200190815260200160002060009054906101000a900460ff16611cac576040517f08c379a00000000000000000000000000000000000000000000000000000000081526004018080602001828103825260218152602001806130fb6021913960400191505060405180910390fd5b82600073ffffffffffffffffffffffffffffffffffffffff168173ffffffffffffffffffffffffffffffffffffffff161415611d50576040517f08c379a000000000000000000000000000000000000000000000000000000000815260040180806020018281038252601c8152602001807f546869732076616c7565206d757374206e6f7420626520656d7074790000000081525060200191505060405180910390fd5b836000600160008373ffffffffffffffffffffffffffffffffffffffff1673ffffffffffffffffffffffffffffffffffffffff16815260200190815260200160002060020180546001816001161561010002031660029004905014611e1d576040517f08c379a000000000000000000000000000000000000000000000000000000000815260040180806020018281038252601b8152602001807f54686973206964656e7469747920616c6561647920657869737473000000000081525060200191505060405180910390fd5b60405180606001604052808673ffffffffffffffffffffffffffffffffffffffff16815260200185815260200184815250600160008773ffffffffffffffffffffffffffffffffffffffff1673ffffffffffffffffffffffffffffffffffffffff16815260200190815260200160002060008201518160000160006101000a81548173ffffffffffffffffffffffffffffffffffffffff021916908373ffffffffffffffffffffffffffffffffffffffff160217905550602082015181600101556040820151816002019080519060200190611efa92919061301c565b509050505050505050565b60008054906101000a900473ffffffffffffffffffffffffffffffffffffffff1673ffffffffffffffffffffffffffffffffffffffff163373ffffffffffffffffffffffffffffffffffffffff1614611fc6576040517f08c379a00000000000000000000000000000000000000000000000000000000081526004018080602001828103825260168152602001807f4f6e6c792061646d696e2063616e20646f20746861740000000000000000000081525060200191505060405180910390fd5b80600260008273ffffffffffffffffffffffffffffffffffffffff1673ffffffffffffffffffffffffffffffffffffffff16815260200190815260200160002060009054906101000a900460ff16612086576040517f08c379a000000000000000000000000000000000000000000000000000000000815260040180806020018281038252601a8152602001807f546869732069737375657220646f6573206e6f7420657869737400000000000081525060200191505060405180910390fd5b60005b83518110156121075742600560008684815181106120a357fe5b6020026020010151815260200190815260200160002060008573ffffffffffffffffffffffffffffffffffffffff1673ffffffffffffffffffffffffffffffffffffffff168152602001908152602001600020819055508080600101915050612089565b50505050565b60008054906101000a900473ffffffffffffffffffffffffffffffffffffffff1673ffffffffffffffffffffffffffffffffffffffff163373ffffffffffffffffffffffffffffffffffffffff16146121ce576040517f08c379a00000000000000000000000000000000000000000000000000000000081526004018080602001828103825260168152602001807f4f6e6c792061646d696e2063616e20646f20746861740000000000000000000081525060200191505060405180910390fd5b82600073ffffffffffffffffffffffffffffffffffffffff168173ffffffffffffffffffffffffffffffffffffffff161415612272576040517f08c379a000000000000000000000000000000000000000000000000000000000815260040180806020018281038252601c8152602001807f546869732076616c7565206d757374206e6f7420626520656d7074790000000081525060200191505060405180910390fd5b836000600160008373ffffffffffffffffffffffffffffffffffffffff1673ffffffffffffffffffffffffffffffffffffffff1681526020019081526020016000206002018054600181600116156101000203166002900490501461233f576040517f08c379a000000000000000000000000000000000000000000000000000000000815260040180806020018281038252601b8152602001807f54686973206964656e7469747920616c6561647920657869737473000000000081525060200191505060405180910390fd5b60405180606001604052808673ffffffffffffffffffffffffffffffffffffffff16815260200185815260200184815250600160008773ffffffffffffffffffffffffffffffffffffffff1673ffffffffffffffffffffffffffffffffffffffff16815260200190815260200160002060008201518160000160006101000a81548173ffffffffffffffffffffffffffffffffffffffff021916908373ffffffffffffffffffffffffffffffffffffffff16021790555060208201518160010155604082015181600201908051906020019061241c92919061301c565b509050506001600260008773ffffffffffffffffffffffffffffffffffffffff1673ffffffffffffffffffffffffffffffffffffffff16815260200190815260200160002060006101000a81548160ff0219169083151502179055505050505050565b60006005600084815260200190815260200160002060008373ffffffffffffffffffffffffffffffffffffffff1673ffffffffffffffffffffffffffffffffffffffff16815260200190815260200160002054905092915050565b60008054906101000a900473ffffffffffffffffffffffffffffffffffffffff1673ffffffffffffffffffffffffffffffffffffffff163373ffffffffffffffffffffffffffffffffffffffff161461259b576040517f08c379a00000000000000000000000000000000000000000000000000000000081526004018080602001828103825260168152602001807f4f6e6c792061646d696e2063616e20646f20746861740000000000000000000081525060200191505060405180910390fd5b600073ffffffffffffffffffffffffffffffffffffffff168173ffffffffffffffffffffffffffffffffffffffff16141561263e576040517f08c379a000000000000000000000000000000000000000000000000000000000815260040180806020018281038252600f8152602001807f696e76616c6964206163636f756e74000000000000000000000000000000000081525060200191505060405180910390fd5b8073ffffffffffffffffffffffffffffffffffffffff1660008054906101000a900473ffffffffffffffffffffffffffffffffffffffff1673ffffffffffffffffffffffffffffffffffffffff167f8be0079c531659141344cd1fd0a4f28419497f9722a3daafe3b4186f6b6457e060405160405180910390a3806000806101000a81548173ffffffffffffffffffffffffffffffffffffffff021916908373ffffffffffffffffffffffffffffffffffffffff16021790555050565b6000806060600160008573ffffffffffffffffffffffffffffffffffffffff1673ffffffffffffffffffffffffffffffffffffffff16815260200190815260200160002060000160009054906101000a900473ffffffffffffffffffffffffffffffffffffffff16600160008673ffffffffffffffffffffffffffffffffffffffff1673ffffffffffffffffffffffffffffffffffffffff16815260200190815260200160002060010154600160008773ffffffffffffffffffffffffffffffffffffffff1673ffffffffffffffffffffffffffffffffffffffff168152602001908152602001600020600201808054600181600116156101000203166002900480601f01602080910402602001604051908101604052809291908181526020018280546001816001161561010002031660029004801561287d5780601f106128525761010080835404028352916020019161287d565b820191906000526020600020905b81548152906001019060200180831161286057829003601f168201915b505050505090509250925092509193909250565b60008054906101000a900473ffffffffffffffffffffffffffffffffffffffff1681565b60036020528060005260406000206000915090505481565b8282600160008373ffffffffffffffffffffffffffffffffffffffff1673ffffffffffffffffffffffffffffffffffffffff16815260200190815260200160002060000160009054906101000a900473ffffffffffffffffffffffffffffffffffffffff1673ffffffffffffffffffffffffffffffffffffffff168173ffffffffffffffffffffffffffffffffffffffff16146129b5576040517f08c379a00000000000000000000000000000000000000000000000000000000081526004018080602001828103825260338152602001806130c86033913960400191505060405180910390fd5b82600160008773ffffffffffffffffffffffffffffffffffffffff1673ffffffffffffffffffffffffffffffffffffffff16815260200190815260200160002060000160006101000a81548173ffffffffffffffffffffffffffffffffffffffff021916908373ffffffffffffffffffffffffffffffffffffffff1602179055505050505050565b60008060018387878760405160008152602001604052604051808581526020018460ff1681526020018381526020018281526020019450505050506020604051602081039080840390855afa158015612a9a573d6000803e3d6000fd5b505050602060405103519050600160008873ffffffffffffffffffffffffffffffffffffffff1673ffffffffffffffffffffffffffffffffffffffff16815260200190815260200160002060000160009054906101000a900473ffffffffffffffffffffffffffffffffffffffff1673ffffffffffffffffffffffffffffffffffffffff168173ffffffffffffffffffffffffffffffffffffffff1614612b4057600080fd5b600460008873ffffffffffffffffffffffffffffffffffffffff1673ffffffffffffffffffffffffffffffffffffffff168152602001908152602001600020600081548092919060010191905055508091505095945050505050565b8383600160008373ffffffffffffffffffffffffffffffffffffffff1673ffffffffffffffffffffffffffffffffffffffff16815260200190815260200160002060000160009054906101000a900473ffffffffffffffffffffffffffffffffffffffff1673ffffffffffffffffffffffffffffffffffffffff168173ffffffffffffffffffffffffffffffffffffffff1614612c84576040517f08c379a00000000000000000000000000000000000000000000000000000000081526004018080602001828103825260338152602001806130c86033913960400191505060405180910390fd5b8573ffffffffffffffffffffffffffffffffffffffff167f911a6733cc6780bfbfbbd3b82870c6f3927b1718010e8ea93edf75cbd2775e3a856000600360008b73ffffffffffffffffffffffffffffffffffffffff1673ffffffffffffffffffffffffffffffffffffffff16815260200190815260200160002054876040518085815260200184815260200183815260200180602001828103825283818151815260200191508051906020019080838360005b83811015612d52578082015181840152602081019050612d37565b50505050905090810190601f168015612d7f5780820380516001836020036101000a031916815260200191505b509550505050505060405180910390a243600360008873ffffffffffffffffffffffffffffffffffffffff1673ffffffffffffffffffffffffffffffffffffffff16815260200190815260200160002081905550505050505050565b8484600160008373ffffffffffffffffffffffffffffffffffffffff1673ffffffffffffffffffffffffffffffffffffffff16815260200190815260200160002060000160009054906101000a900473ffffffffffffffffffffffffffffffffffffffff1673ffffffffffffffffffffffffffffffffffffffff168173ffffffffffffffffffffffffffffffffffffffff1614612ec3576040517f08c379a00000000000000000000000000000000000000000000000000000000081526004018080602001828103825260338152602001806130c86033913960400191505060405180910390fd5b8673ffffffffffffffffffffffffffffffffffffffff167f911a6733cc6780bfbfbbd3b82870c6f3927b1718010e8ea93edf75cbd2775e3a86864201600360008c73ffffffffffffffffffffffffffffffffffffffff1673ffffffffffffffffffffffffffffffffffffffff16815260200190815260200160002054876040518085815260200184815260200183815260200180602001828103825283818151815260200191508051906020019080838360005b83811015612f92578082015181840152602081019050612f77565b50505050905090810190601f168015612fbf5780820380516001836020036101000a031916815260200191505b509550505050505060405180910390a243600360008973ffffffffffffffffffffffffffffffffffffffff1673ffffffffffffffffffffffffffffffffffffffff1681526020019081526020016000208190555050505050505050565b828054600181600116156101000203166002900490600052602060002090601f0160209004810192826130525760008555613099565b82601f1061306b57805160ff1916838001178555613099565b82800160010185558215613099579182015b8281111561309857825182559160200191906001019061307d565b5b5090506130a691906130aa565b5090565b5b808211156130c35760008160009055506001016130ab565b509056fe4f6e6c7920436f6e74726f6c6c6572206f662074686973206964656e746974792063616e20646f207468697320616374696f6e4f6e6c792041646d696e20616e64204973737565722063616e20646f2074686174a264697066735822122032e4af1faa6367b6b4e0dff3b53371718d348177a1d81c12f445bed7d10dd5fe64736f6c63430007040033",
  "immutableReferences": {},
  "source": "// SPDX-License-Identifier: XSL\n// (c) Copyright 2021 xsl, all rights reserved.\npragma solidity ^0.7.4;\n\n/**\n    @title XSL Labs contract\n    @author XSL Labs Team\n    @notice DID and Verifable Credential Registery\n */\nimport \"./IERC173.sol\";\ncontract XSLDID is IERC173 {\n\n    // Admin Address (XSL Labs)\n    address public  admin;\n\n    // Mini DID Document\n    struct DIDDocument {\n        address Controller;\n        bytes32 Service;\n        bytes AuthenticationKey;\n    }\n    struct PublicVC {\n        bytes32 IpfsRef;\n        uint time;\n    }\n    mapping (address => DIDDocument ) DIDs;\n    mapping(address => bool) public isIssuer;\n    mapping(address => uint) public changed;\n    mapping(address => uint) public nonce;\n    mapping (bytes32 =>   mapping(address => uint)) VCs;\n    mapping (address =>   PublicVC[]) VCsPublic;\n    /*\n     *  Modifiers\n     */\n    modifier onlyAdmin() {\n        require(msg.sender == admin, \"Only admin can do that\");\n        _;\n    }\n    modifier onlyAuthorized() {\n        require(isIssuer[msg.sender], \"Only Admin and Issuer can do that\");\n        _;\n    }\n    modifier issuerDoesNotExist(address _issuer) {\n        require(!isIssuer[_issuer], \"This issuer already exists\");\n        _;\n    }\n    modifier issuerExists(address _issuer) {\n        require(isIssuer[_issuer], \"This issuer does not exist\");\n        _;\n    }\n    modifier identityNotExist(address _identity) {\n        require(DIDs[_identity].AuthenticationKey.length == 0, \"This identity aleady exists\");\n        _;\n    }\n    modifier identityExists(address _identity) {\n        require(DIDs[_identity].AuthenticationKey.length > 0, \"This identity does not exist\");\n        _;\n    }\n    modifier notNull(address _address) {\n        require(_address != address(0), \"This value must not be empty\");\n        _;\n    }\n    modifier onlyOwner(address _identity, address _controller) {\n        require (_controller == DIDs[_identity].Controller, \"Only Controller of this identity can do this action\");\n        _;\n    }\n\n    modifier notAdminAddress(address _identity) {\n        require (_identity == admin, \"This address is fro admin\");\n        _;\n    }\n    /*\n     *  Events\n     */\n    event DIDAttributeChanged(\n        address indexed identity,\n        bytes32 name,\n        uint validTo,\n        uint previousChange,\n        string value\n    );\n    event OwnershipTransferred(\n      address indexed previousOwner,\n      address indexed newOwner);\n\n    /**\n        @dev \t\t\t\t\t\tsmart contract initialization (sets the deployer as the initial owner)\n        @param _authenticationKey   Admin authentication key\n        @param _service             Admin public profile (IPFS Profile)\n    */\n    constructor (bytes memory _authenticationKey, bytes32  _service){\n        admin = msg.sender;\n        DIDs[msg.sender] =  DIDDocument(msg.sender,_service, _authenticationKey);\n        // the admin is an Issuer\n        isIssuer[msg.sender] = true;\n    }\n\n    /**\n      @dev Creates a mini DID Document for \"_identity\" address with\n        - authentication key,\n        - controller,\n        - verifiable credential signature key\n        - verifiable credential service url\n        reserved for Admin\n        Example:\n\t\t\t{\n               \"context\": [\"https://www.w3.org/ns/did/v1\", \"https://w3id.org/security/v1\"],\n               \"id\": \"did:syl:0x4B20993Bc481177ec7E8f571ceCaE8A9e22C02db\",\n               \"controller\": \"did:syl:0x4B20993Bc481177ec7E8f571ceCaE8A9e22C02db\",\n               \"authentication\": [\n                 {\n                   \"did:syl:0x4B20993Bc481177ec7E8f571ceCaE8A9e22C02db#keyAuth-1\",\n                   \"type\": \"EcdsaSecp256r1Signature2019\",\n                   \"controller\": \"did:syl:0x4B20993Bc481177ec7E8f571ceCaE8A9e22C02db\",\n                   \"publicKeyBase58\": \"027560af3387d375e3342a6968179ef3c6d04f5d33b2b611cf326d4708badd7770\"\n                 }\n               ],\n               \"assertionMethod\": [\n                 {\n                 \"did:syl:0x4B20993Bc481177ec7E8f571ceCaE8A9e22C02db#VC-Signature\",\n                 \"type\": \"EcdsaSecp256k1Signature2019\",\n                 \"controller\": \"did:syl:0x4B20993Bc481177ec7E8f571ceCaE8A9e22C02db\",\n                 \"ethereumAddress\": \"0x4B20993Bc481177ec7E8f571ceCaE8A9e22C02db\"\n                 }\n               ],\n               \"service\": [\n                 {\n                   \"id\": \"did:syl:0x4B20993Bc481177ec7E8f571ceCaE8A9e22C02db#CV\",\n                   \"type\": \"service\",\n                   \"serviceEndpoint\": \"www.xsl-labs.io\"\n                 }\n               ]\n            }\n      @param _identity              User Address (used as Identifier)\n      @param _authenticationKey    \tAuthentication Key (hex format)\n      @param _service               Verifable Credential url\n    */\n    function creatDID (address _identity, bytes32  _service , bytes memory _authenticationKey) external\n        onlyAuthorized()\n        notNull(_identity)\n        identityNotExist(_identity) {\n\n            DIDs[_identity] = DIDDocument(_identity,_service,_authenticationKey);\n    }\n\n    /**\n      @dev Creates a mini DID Document for \"_identity\" address with\n        - authentication key,\n        - controller,\n        - verifiable credential signature key\n        - public profile service IPFS url\n        reserved for Admin\n        Example:\n\t\t\t{\n               \"context\": [\"https://www.w3.org/ns/did/v1\", \"https://w3id.org/security/v1\"],\n               \"id\": \"did:syl:0x4B20993Bc481177ec7E8f571ceCaE8A9e22C02db\",\n               \"controller\": \"did:syl:0x4B20993Bc481177ec7E8f571ceCaE8A9e22C02db\",\n               \"authentication\": [\n                 {\n                   \"did:syl:0x4B20993Bc481177ec7E8f571ceCaE8A9e22C02db#keyAuth-1\",\n                   \"type\": \"EcdsaSecp256r1Signature2019\",\n                   \"controller\": \"did:syl:0x4B20993Bc481177ec7E8f571ceCaE8A9e22C02db\",\n                   \"publicKeyBase58\": \"027560af3387d375e3342a6968179ef3c6d04f5d33b2b611cf326d4708badd7770\"\n                 }\n               ],\n               \"assertionMethod\": [\n                 {\n                 \"did:syl:0x4B20993Bc481177ec7E8f571ceCaE8A9e22C02db#VC-Signature\",\n                 \"type\": \"EcdsaSecp256k1Signature2019\",\n                 \"controller\": \"did:syl:0x4B20993Bc481177ec7E8f571ceCaE8A9e22C02db\",\n                 \"ethereumAddress\": \"0x4B20993Bc481177ec7E8f571ceCaE8A9e22C02db\"\n                 }\n               ],\n               \"service\": [\n                 {\n                   \"id\": \"did:syl:0x4B20993Bc481177ec7E8f571ceCaE8A9e22C02db#Public_Profile\",\n                   \"type\": \"Public Profile\",\n                   \"serviceEndpoint\": \"https://ipfs.infura.io/ipfs/QmNTMEmwUTG5mFhdRrsiAADPed1i4HccbhCcbdALAyyxLE\"\n                 }\n               ]\n            }\n      @param _identity             \tUser Address (used as Identifier )\n      @param _authenticationKey    \tAuthentication Key (hex format)\n      @param _service\t\t\t\tPublic profile IPFS url\n    */\n    function creatDIDForIssuer (address _identity, bytes32 _service, bytes memory _authenticationKey) external\n        onlyAdmin()\n        notNull(_identity)\n        identityNotExist(_identity) {\n\n            DIDs[_identity] =  DIDDocument(_identity,_service, _authenticationKey);\n            isIssuer[_identity] = true;\n    }\n\n    /**\n      @dev Store \t\t\t\tVerifiable credential trace (Hash) associated to issuer address and time\n      @param _hashVC\t\t\tVerifiable credentialhash (SHA256)\n      @param _issuerIdentity\tIssuer Address\n     */\n    function addVC ( bytes32 _hashVC, address _issuerIdentity) external\n        onlyAdmin()\n        issuerExists(_issuerIdentity) {\n\n            VCs[_hashVC][_issuerIdentity] = block.timestamp;\n    }\n\n     /**\n      @dev Store \t\t\t\tbatch of Verifiable credential trace (Hash) associated to issuer address and time\n      @param _hashVCs\t\t\tVerifiable credentialhash (SHA256)\n      @param _issuerIdentity\tIssuer Address\n     */\n    function addVCs ( bytes32[] memory _hashVCs, address _issuerIdentity) external\n        onlyAdmin()\n        issuerExists(_issuerIdentity) {\n        for (uint i=0; i<_hashVCs.length ; i++) {\n                    VCs[_hashVCs[i]][_issuerIdentity] = block.timestamp;\n        }\n    }\n\n    /**\n      @dev Store \t\t\t\tVerifiable credential IPFS Referance and time  associated to an identity address\n      @param _issuerIdentity\t\t\tIssuer Address\n      @param _vcIpfsHash\t            Verifiable credentialhash IPFS Referance\n     */\n    function addPublicVC( address _issuerIdentity, bytes32 _vcIpfsHash) external\n    onlyAdmin()\n    issuerExists(_issuerIdentity) {\n            VCsPublic[_issuerIdentity].push( PublicVC(_vcIpfsHash,block.timestamp));\n    }\n    /**\n      @dev \t\t\t\t\t\tController identity change (only used internally by Smart Contract).\n      @param _identity          Identity address\n      @param _controller        Current controller address\n      @param _newController     New controller address\n     */\n    function changeController(address _identity, address _controller,  address _newController) internal\n        onlyOwner(_identity, _controller) {\n\n             DIDs[_identity].Controller = _newController;\n    }\n\n    /**\n      @dev \t\t\t\t\t\tController identity change\n      @param _identity       \tIdentity address\n      @param _controller        New controller address\n     */\n    function changeController(address _identity,  address _controller) public\n        identityExists(_identity)\n        notNull(_controller) {\n\n            changeController(_identity, msg.sender, _controller);\n    }\n\n    /**\n      @dev \t\t\t\t\tController identity change through off-chain signature by current controller private key\n      @param sigV           Recovery identifier\n      @param sigR           Signature value R  (message to be signed == 0x19 + 0x00 + Smart Contract Address + Nonce + Identity Address\n      @param sigS           Signature value S   + \"changeController\" + new controller address)\n      @param _controller    New controller address\n     */\n    function changeControllerSigned(address _identity, uint8 sigV, bytes32 sigR, bytes32 sigS, address _controller) public\n        identityExists(_identity)\n        notNull(_controller) {\n\n            bytes32 hash = keccak256(abi.encodePacked(byte(0x19), byte(0), this, nonce[DIDs[_identity].Controller], _identity, \"changeController\", _controller));\n            changeController(_identity, checkSignature(_identity, sigV, sigR, sigS, hash), _controller);\n    }\n\n\n    /**\n      @dev \t\t\t\t\tEvent emission to add attribute to identity address (DIDAttributeChanged)\n      @param _identity      Identity address\n      @param _controller    Current controller address\n      @param name           Attribute name\n                                example: Auth/Secp256k1/VeriKey/publicKeyHex (add Authentication Key with Type EcdsaSecp256k1VerificationKey2019 with hex encoded public key)\n      @param value          Attribute value\n                                ewample: 0x02b97c30de767f084ce3080168ee293053ba33b235d7116a3263d29f1450936b71\n      @param validity\t\tValidity period\n     */\n    function setAttribute(address _identity, address _controller, bytes32 name, uint validity , string memory value) internal\n        onlyOwner(_identity, _controller) {\n\n            emit DIDAttributeChanged(_identity, name, block.timestamp + validity, changed[_identity], value);\n            changed[_identity] = block.number;\n    }\n\n    function setAttribute(address _identity, bytes32 name, uint validity, string memory value) public\n        identityExists(_identity) {\n\n            setAttribute(_identity, msg.sender, name, validity, value);\n    }\n    /**\n      @dev \t\t\t\t\tEvent emission to add attribute to identity address through off-chain signature with current controller private key\n      @param _identity      Identity address\n      @param sigV           Recovery identifier\n      @param sigR           Signature value R  (message to be signed == 0x19 + 0x00 + Smart Contract Address + Nonce + Identity Address\n      @param sigS           Signature value S   + \"setAttribute\" + name  + validity + value)\n      @param name           Attribute name\n                                example: Auth/Secp256k1/VeriKey/publicKeyHex (add Authentication Key with Type EcdsaSecp256k1VerificationKey2019 with hex encoded public key)\n      @param value          Attribute value\n                                ewample: 0x02b97c30de767f084ce3080168ee293053ba33b235d7116a3263d29f1450936b71\n      @param validity\t\tValidity period\n     */\n    function setAttributeSigned(address _identity, uint8 sigV, bytes32 sigR, bytes32 sigS, bytes32 name, uint validity, string memory value) public\n        identityExists(_identity) {\n\n            bytes32 hash = keccak256(abi.encodePacked(byte(0x19), byte(0), this, nonce[_identity], _identity, \"setAttribute\", name, validity, value));\n            setAttribute(_identity, checkSignature(_identity, sigV, sigR, sigS, hash), name, validity, value);\n    }\n    /**\n      @dev \t\t\t\t\tEven emission to revoke attribute to identity address (DIDAttributeChanged).\n      @param _identity      Identity address\n      @param _controller    Current controller address\n      @param name           Attribute name\n                                example: Auth/Secp256k1/VeriKey/publicKeyHex (add Authentication Key with Type EcdsaSecp256k1VerificationKey2019 with hex encoded public key)\n      @param value          Attribute value\n                                example: 0x02b97c30de767f084ce3080168ee293053ba33b235d7116a3263d29f1450936b71\n     */\n    function revokeAttribute(address _identity, address _controller, bytes32 name, string memory value) internal\n        onlyOwner(_identity, _controller) {\n\n            emit DIDAttributeChanged(_identity, name, 0, changed[_identity], value);\n            changed[_identity] = block.number;\n    }\n\n    function revokeAttribute(address _identity, bytes32 name, string memory value) public\n        identityExists(_identity) {\n\n            revokeAttribute(_identity, msg.sender, name, value);\n    }\n\n    function revokeAttributeSigned(address _identity, uint8 sigV, bytes32 sigR, bytes32 sigS, bytes32 name, string memory value) public\n        identityExists(_identity) {\n\n            bytes32 hash = keccak256(abi.encodePacked(byte(0x19), byte(0), this, nonce[_identity], _identity, \"revokeAttribute\", name, value));\n            revokeAttribute(_identity, checkSignature(_identity, sigV, sigR, sigS, hash), name, value);\n    }\n\n    /**\n      @dev \t\t\t\t\tSignature validity check\n      @param _identity   \tSigner address\n      @param sigV           Recovery identifier\n      @param sigR           Signature value R\n      @param sigS           Signature value S\n      @param hash           Hash of signed value\n     */\n   function checkSignature(address _identity, uint8 sigV, bytes32 sigR, bytes32 sigS, bytes32 hash) internal returns(address) {\n            address signer = ecrecover(hash, sigV, sigR, sigS);\n            require(signer == DIDs[_identity].Controller);\n            nonce[_identity]++;\n            return signer;\n   }\n\n    /**\n      @dev \t\t\t\t\tMini DID retrieval (associated to identity address)\n      @param _identity      Identity address\n    */\n    function getDID(address _identity) public view returns(address, bytes32,  bytes memory){\n        return (DIDs[_identity].Controller,DIDs[_identity].Service,DIDs[_identity].AuthenticationKey);\n    }\n    /**\n      @dev \t\t\t\t\tVerifiable Credential trace timestamp retrieval (from verifiable credential hash and issuer address)\n      @param _hashVC        Verifiable credential hash\n      @param _issuerAddress\tIssuer Address\n     */\n    function getVCtimestamp(bytes32 _hashVC, address _issuerAddress) public view returns(uint){\n       return VCs[_hashVC][_issuerAddress];\n    }\n\n\n    /**\n            @dev Returns the address of the current admin.\n    */\n    function owner() public view override returns (address) {\n        return admin;\n    }\n\n\n    function transferOwnership(address account)  public override\n      onlyAdmin(){\n        require(account != address(0), \"invalid account\");\n        emit OwnershipTransferred(admin, account);\n        admin = account;\n     }\n}\n",
  "sourcePath": "/Users/imadlgo/github/SmartContract_SDI/contracts/XSLDID.sol",
  "compiler": {
    "name": "solc",
    "version": "0.7.4+commit.3f05b770.Emscripten.clang"
  },
  "schemaVersion": "3.3.4",
  "updatedAt": "2021-03-09T15:03:37.173Z",
  "networkType": "ethereum",
  "devdoc": {
    "kind": "dev",
    "methods": {
      "addPublicVC(address,bytes32)": {
        "details": "Store \t\t\t\tVerifiable credential IPFS Referance and time  associated to an identity address",
        "params": {
          "_issuerIdentity": "Issuer Address",
          "_vcIpfsHash": "Verifiable credentialhash IPFS Referance"
        }
      },
      "addVC(bytes32,address)": {
        "details": "Store \t\t\t\tVerifiable credential trace (Hash) associated to issuer address and time",
        "params": {
          "_hashVC": "Verifiable credentialhash (SHA256)",
          "_issuerIdentity": "Issuer Address"
        }
      },
      "addVCs(bytes32[],address)": {
        "details": "Store \t\t\t\tbatch of Verifiable credential trace (Hash) associated to issuer address and time",
        "params": {
          "_hashVCs": "Verifiable credentialhash (SHA256)",
          "_issuerIdentity": "Issuer Address"
        }
      },
      "changeController(address,address)": {
        "details": "Controller identity change",
        "params": {
          "_controller": "New controller address",
          "_identity": "Identity address"
        }
      },
      "changeControllerSigned(address,uint8,bytes32,bytes32,address)": {
        "details": "Controller identity change through off-chain signature by current controller private key",
        "params": {
          "_controller": "New controller address",
          "sigR": "Signature value R  (message to be signed == 0x19 + 0x00 + Smart Contract Address + Nonce + Identity Address",
          "sigS": "Signature value S   + \"changeController\" + new controller address)",
          "sigV": "Recovery identifier"
        }
      },
      "constructor": {
        "details": "smart contract initialization (sets the deployer as the initial owner)",
        "params": {
          "_authenticationKey": "Admin authentication key",
          "_service": "Admin public profile (IPFS Profile)"
        }
      },
      "creatDID(address,bytes32,bytes)": {
        "details": "Creates a mini DID Document for \"_identity\" address with - authentication key, - controller, - verifiable credential signature key - verifiable credential service url reserved for Admin Example: { \"context\": [\"https://www.w3.org/ns/did/v1\", \"https://w3id.org/security/v1\"], \"id\": \"did:syl:0x4B20993Bc481177ec7E8f571ceCaE8A9e22C02db\", \"controller\": \"did:syl:0x4B20993Bc481177ec7E8f571ceCaE8A9e22C02db\", \"authentication\": [ { \"did:syl:0x4B20993Bc481177ec7E8f571ceCaE8A9e22C02db#keyAuth-1\", \"type\": \"EcdsaSecp256r1Signature2019\", \"controller\": \"did:syl:0x4B20993Bc481177ec7E8f571ceCaE8A9e22C02db\", \"publicKeyBase58\": \"027560af3387d375e3342a6968179ef3c6d04f5d33b2b611cf326d4708badd7770\" } ], \"assertionMethod\": [ { \"did:syl:0x4B20993Bc481177ec7E8f571ceCaE8A9e22C02db#VC-Signature\", \"type\": \"EcdsaSecp256k1Signature2019\", \"controller\": \"did:syl:0x4B20993Bc481177ec7E8f571ceCaE8A9e22C02db\", \"ethereumAddress\": \"0x4B20993Bc481177ec7E8f571ceCaE8A9e22C02db\" } ], \"service\": [ { \"id\": \"did:syl:0x4B20993Bc481177ec7E8f571ceCaE8A9e22C02db#CV\", \"type\": \"service\", \"serviceEndpoint\": \"www.xsl-labs.io\" } ] }",
        "params": {
          "_authenticationKey": "Authentication Key (hex format)",
          "_identity": "User Address (used as Identifier)",
          "_service": "Verifable Credential url"
        }
      },
      "creatDIDForIssuer(address,bytes32,bytes)": {
        "details": "Creates a mini DID Document for \"_identity\" address with - authentication key, - controller, - verifiable credential signature key - public profile service IPFS url reserved for Admin Example: { \"context\": [\"https://www.w3.org/ns/did/v1\", \"https://w3id.org/security/v1\"], \"id\": \"did:syl:0x4B20993Bc481177ec7E8f571ceCaE8A9e22C02db\", \"controller\": \"did:syl:0x4B20993Bc481177ec7E8f571ceCaE8A9e22C02db\", \"authentication\": [ { \"did:syl:0x4B20993Bc481177ec7E8f571ceCaE8A9e22C02db#keyAuth-1\", \"type\": \"EcdsaSecp256r1Signature2019\", \"controller\": \"did:syl:0x4B20993Bc481177ec7E8f571ceCaE8A9e22C02db\", \"publicKeyBase58\": \"027560af3387d375e3342a6968179ef3c6d04f5d33b2b611cf326d4708badd7770\" } ], \"assertionMethod\": [ { \"did:syl:0x4B20993Bc481177ec7E8f571ceCaE8A9e22C02db#VC-Signature\", \"type\": \"EcdsaSecp256k1Signature2019\", \"controller\": \"did:syl:0x4B20993Bc481177ec7E8f571ceCaE8A9e22C02db\", \"ethereumAddress\": \"0x4B20993Bc481177ec7E8f571ceCaE8A9e22C02db\" } ], \"service\": [ { \"id\": \"did:syl:0x4B20993Bc481177ec7E8f571ceCaE8A9e22C02db#Public_Profile\", \"type\": \"Public Profile\", \"serviceEndpoint\": \"https://ipfs.infura.io/ipfs/QmNTMEmwUTG5mFhdRrsiAADPed1i4HccbhCcbdALAyyxLE\" } ] }",
        "params": {
          "_authenticationKey": "Authentication Key (hex format)",
          "_identity": "User Address (used as Identifier )",
          "_service": "Public profile IPFS url"
        }
      },
      "getDID(address)": {
        "details": "Mini DID retrieval (associated to identity address)",
        "params": {
          "_identity": "Identity address"
        }
      },
      "getVCtimestamp(bytes32,address)": {
        "details": "Verifiable Credential trace timestamp retrieval (from verifiable credential hash and issuer address)",
        "params": {
          "_hashVC": "Verifiable credential hash",
          "_issuerAddress": "Issuer Address"
        }
      },
      "owner()": {
        "details": "Returns the address of the current admin."
      },
      "setAttributeSigned(address,uint8,bytes32,bytes32,bytes32,uint256,string)": {
        "details": "Event emission to add attribute to identity address through off-chain signature with current controller private key",
        "params": {
          "_identity": "Identity address",
          "name": "Attribute name example: Auth/Secp256k1/VeriKey/publicKeyHex (add Authentication Key with Type EcdsaSecp256k1VerificationKey2019 with hex encoded public key)",
          "sigR": "Signature value R  (message to be signed == 0x19 + 0x00 + Smart Contract Address + Nonce + Identity Address",
          "sigS": "Signature value S   + \"setAttribute\" + name  + validity + value)",
          "sigV": "Recovery identifier",
          "validity": "Validity period",
          "value": "Attribute value ewample: 0x02b97c30de767f084ce3080168ee293053ba33b235d7116a3263d29f1450936b71"
        }
      }
    },
    "version": 1
  },
  "userdoc": {
    "kind": "user",
    "methods": {},
    "version": 1
  }
}